:0200000280007C
:100000005008002065010800610108006101080036
:1000100061010800610108006101080000000000A2
:100020000000000000000000000000006101080066
:100030006101080000000000610108006101080082
:100040006101080061010800610108006101080008
:1000500061010800610108006101080061010800F8
:10006000250308006101080000000000610108008C
:100070006101080061010800610108000000000042
:100080000000000061010800610108006101080032
:1000900061010800610108006101080061010800B8
:1000A0006101080000000000610108006101080012
:1000B0006101080061010800610108006101080098
:1000C0006101080061010800610108006101080088
:1000D0006101080061010800610108006101080078
:1000E0006101080061010800610108006101080068
:1000F0006101080010B5054C237833B9044B13B1E6
:100100000448AFF300800123237010BD30040020A9
:1001100000000000B00408000C4B43B10C4810B5BF
:100120000C49AFF300800C48036823B910BD0A489E
:10013000036833B97047094B002BF7D0BDE8104076
:100140001847064B002BF5D0184700BF00000000F1
:10015000B004080034040020B004080000000000CF
:10016000FEE7000008B5184B184A9A4210D0184B09
:10017000154A9A420CD2013B9B1A23F00303043325
:100180001344124951F8040B42F8040B9A42F9D176
:10019000104B114A9A420AD2013B9B1A23F00303E7
:1001A00004331344002142F8041B9342FBD10B4B50
:1001B00023F0604323F07F03094A9360094B98477B
:1001C000094B9847FEE700BF00000020B00408007C
:1001D000300400204C0400203004002000000800FF
:1001E00000ED00E039030800910208004FF480633D
:1001F000204A136002F5007213601F4B1B6A13F054
:10020000807F07D11D4A1C4B1A621A46936E13F069
:10021000010FFBD01A4A184B1A621A46936E13F458
:10022000803FFBD0144A136B23F0030343F0010318
:100230001363936E13F0080FFBD0124A0E4B9A62B1
:100240001A46936E13F0020FFBD011220A4B1A6369
:100250001A46936E13F0080FFBD01222064B1A6356
:100260001A46936E13F0080FFBD0074A074B1A602B
:10027000704700BF000A0E4000060E400908370014
:1002800009083701013F0D2000BD010500000020D5
:1002900008B50A4B98470022094B5A604FF4E130E9
:1002A000084B9847084B4FF000621A601A611A66B3
:1002B0001A464FF000631363FDE700BFED0108002D
:1002C000501A0E40CD02080000100E4030B44FF41A
:1002D0008072104B1A6103F500635A604FF400718D
:1002E00059601C6F00241C671D6F1C675A66596695
:1002F000094BB3FBF0F0094B18624FF400615960F1
:10030000502119605968596011219960044B1A6095
:1003100030BC704700060E40D01B500000080E4055
:1003200000E100E0034B5B6913F0080F04BF014BD1
:100330005B69704700080E4070B50F4E0F4D761B7D
:10034000B61018BF002405D0013455F8043B984777
:10035000A642F9D10A4E0B4D00F098F8761BB61064
:1003600018BF002406D0013455F8043B9847A64234
:10037000F9D170BD70BD00BF980408009804080052
:10038000A004080098040800024B13B1024800F0D2
:1003900005B8704700000000A903080000230146CB
:1003A0001A46184600F01AB838B50A4C0A4D641BB4
:1003B000A4100AD004F18043013B05EB8305013C06
:1003C00055F804399847002CF9D1BDE8384000F0C1
:1003D00067B800BFB0040800AC0408002DE9F0477E
:1003E000274C074626688846D6F8484192469946E3
:1003F000002C3CD065681F2D1ADC05F1010E7FB181
:10040000012004EB8503C3F888A0D4F8881100FA12
:1004100005F21143022FC4F88811C3F8089120D0C7
:100420000235C4F804E0002044F82580BDE8F087D8
:10043000144B0BB34FF4C870AFF300800446D8B12F
:100440000020D6F848314FF0010E60602360054669
:10045000C6F84841C4F88801C4F88C01002FDFD0E9
:10046000CEE7D4F88C311A43C4F88C21D8E706F5CE
:10047000A674C6F84841BDE74FF0FF30BDE8F087ED
:10048000880408000000000008000020F8B500BF44
:10049000F8BC08BC9E467047890308001901080093
:1004A000F8B500BFF8BC08BC9E467047F5000800D0
:1004B00000093D000000000000000000F4020020E0
:1004C0005C030020C40300200000000000000000C6
:1004D000000000000000000000000000000000001C
:1004E000000000000000000000000000000000000C
:1004F00000000000000000000000000000000000FC
:1005000000000000000000000000000000000000EB
:1005100000000000000000000000000000000000DB
:1005200000000000000000000000000000000000CB
:1005300000000000000000000000000000000000BB
:1005400000000000000000000000000000000000AB
:10055000000000000000000000000000000000009B
:1005600001000000000000000E33CDAB34126DE638
:10057000ECDE05000B0000000000000000000000A1
:10058000000000000000000000000000000000006B
:10059000000000000000000000000000000000005B
:1005A000000000000000000000000000000000004B
:1005B000000000000000000000000000000000003B
:040000038000000079
:00000001FF
