S00E000044726F686E652E73726563B6
S113000071C000008EC000008CC000008AC00000D7
S113001088C0000086C0000084C0000082C00000C8
S113002080C000007EC000007CC000007AC00000D8
S113003078C0000076C0000074C0000072C00000E8
S113004070C000006EC000006CC000006AC00000F8
S113005068C0000066C0000064C0000062C0000008
S113006060C0000062C100005CC0000027C1000045
S113007058C0000056C0000054C0000052C0000028
S113008050C000004EC000004CC000004AC0000038
S113009048C0000046C0000044C0000042C0000048
S11300A040C000003EC000003CC000003AC0000058
S11300B038C0000036C0000034C0000032C0000068
S11300C030C000002EC000002CC000002AC0000078
S11300D028C0000026C0000024C0000022C0000088
S11300E020C0000011241FBECFEFD1E2DEBFCDBF80
S11300F000E00CBF12E0A0E0B2E0E2EFF9E000E0C3
S11301000BBF02C007900D92A231B107D9F722E0CC
S1130110A2E1B2E001C01D92AA36B207E1F75ED0B7
S113012066C46ECFFC01892B39F081E020813181D6
S1130130232B19F080E0089581E0089584E090E095
S113014035D3009729F0FC011382128211821082A8
S11301500895CF93DC01892BA9F0ED91FC911197BF
S1130160309791F0C2818081918111969C938E93F6
S1130170892B21F413961C921E921297CF01AED3B1
S11301808C2F03C080E001C080E0CF9108951F93BD
S1130190CF93DF930097D9F0162FEC0183E090E022
S11301A005D30097B1F0FC01128311821082EA8119
S11301B0FB81309731F49B838A839983888381E020
S11301C009C0918380839B838A8381E003C080E09C
S11301D001C080E0DF91CF911F910895CF93DF9309
S11301E01F921F92CDB7DEB719821A8260E071EEBA
S11301F080E090E0C9D0789487E092E055D2C9D0ED
S11302008823E9F389818F5F89838A8142E0BE0173
S11302106F5F7F4F805D67D2811103C08DE092E0F4
S113022043D289818F3F59F78A818F5F8A83E7CFD1
S11302309B01AC0160E472E48FE090E095D2215020
S113024031093093C5002093C400E1ECF0E08081D3
S113025088608083808180618083A2ECB0E08C918F
S1130260877C8C9380818B7F80838C9186608C9338
S11302708081806480838081806880835FDF909345
S11302802102809320020895682F8091200290918A
S113029021027DDF8091140281110AC08091200225
S11302A09091210256DF8093C60081E0809314026E
S11302B00895909313028093120208951F920F924F
S11302C00FB60F9211240BB60F922F933F934F93B7
S11302D05F936F937F938F939F93AF93BF93EF93AA
S11302E0FF9380912002909121021CDF882319F052
S11302F01092140207C0809120029091210229DFFC
S11303008093C600FF91EF91BF91AF919F918F9120
S11303107F916F915F914F913F912F910F900BBE01
S11303200F900FBE0F901F9018951F920F920FB64B
S11303300F9211240BB60F922F933F934F935F9319
S11303406F937F938F939F93AF93BF93EF93FF9399
S1130350E0911202F0911302309719F08091C600D7
S11303601995FF91EF91BF91AF919F918F917F91DB
S11303706F915F914F913F912F910F900BBE0F9012
S11303800FBE0F901F90189553DF88E892E091CF2D
S11303900895809106020895EF92FF920F931F93A0
S11303A0CF93DF93CDB7DEB728970FB6F894DEBFAF
S11303B00FBECDBF2983F32E3A834B835C836D83B9
S11303C07E838F83988782E05FDF89815DDF8F2D55
S11303D05BDFFF20B9F000E010E0EB81FC81E00F6F
S11303E0F11F808151DF0F5F1F4F0F15B0F30AC05B
S11303F0F80181918F0148DF0E151F05C9F784E0CC
S113040043DF08C08E010B5F1F4F7E01F9E0EF0E42
S1130410F11CEECF28960FB6F894DEBF0FBECDBF09
S1130420DF91CF911F910F91FF90EF900895CF939B
S1130430DF93CDB7DEB728970FB6F894DEBF0FBEB3
S1130440CDBFE22F29833A834B835C836D837E8304
S11304508F8398878E2FE63041F4311123C081E0D9
S11304608093060210925E024AC0E531C9F431114C
S113047019C080915E02882309F441C020915E0274
S113048030915F024091600250916102609162027A
S11304907091630280916402909165027DDF2FC0A8
S11304A0EE2369F190911E02992349F19091220261
S11304B0981779F090E01EC0492F50E0FA01EE0F32
S11304C0FF1FE40FF51FEE5DFD4F2081821312C064
S11304D002C040E050E0FA01EE0FFF1F4E0F5F1F15
S11304E0FA01EE5DFD4F0180F281E02D6B817C818C
S11304F0199505C09F5F20911E029217E8F2289675
S11305000FB6F894DEBF0FBECDBFDF91CF91089533
S11305100F931F93CF93C82F80911F02823021F134
S113052028F4882359F0813099F072C0843009F49A
S113053047C070F1853009F456C06AC0C23021F456
S113054081E080931F0264C086E080931F0260C034
S1130550C0931602CC2321F082E080931F0258C07E
S113056086E080931F0254C006E112E0F801C183C3
S11305708C2F90E01BD1F80193838283CC2321F04C
S113058083E080931F0244C084E080931F0240C034
S113059080911502A6E1B2E01296ED91FC911397B9
S11305A0E80FF11DC0838F5F8093150211969C9113
S11305B0891770F11092150284E080931F0228C0FD
S11305C080911502E82FF0E0EA5EFD4FC4838F5F4F
S11305D0843018F4809315021BC01092150285E034
S11305E080931F0215C0C43089F420911602309103
S11305F01702409118025091190260911A027091E9
S11306001B0280911C0290911D0211DF10921F02A7
S1130610CF911F910F910895FF920F931F93CF9342
S1130620DF93CDB7DEB760970FB6F894DEBF0FBE89
S1130630CDBF8B01F42E4A878987842F90E0B6D0F2
S11306408B879C87FF2079F0F801A82FB92FFA94A3
S11306506F2D70E06F5F7F4F600F711F81918D93DD
S1130660E617F707D9F71D861E861F86188A88E0C5
S1130670FE013996DE01119601900D928A95E1F7FB
S113068029813A814B815C816D817E818F8198853E
S113069060960FB6F894DEBF0FBECDBFDF91CF9149
S11306A01F910F91FF900895CF93DF93CDB7DEB7DD
S11306B028970FB6F894DEBF0FBECDBFFC010190A2
S11306C00020E9F73197AF01481B590BBC0181E0C9
S11306D0A3DF62DE28960FB6F894DEBF0FBECDBF4F
S11306E0DF91CF9108950F931F93CF93DF93CDB7ED
S11306F0DEB728970FB6F894DEBF0FBECDBF182F14
S11307008BDF29833A834B835C836D837E838F8362
S11307109887832F90E03DDE082F8823C9F013507B
S11307201839A8F488E0FE013196AEE5B2E00190F4
S11307300D928A95E1F729813A814B815C816D8123
S11307407E818F81988528DE1092060201C000E028
S1130750802F28960FB6F894DEBF0FBECDBFDF9171
S1130760CF911F910F910895A1E21A2EAA1BBB1BD2
S1130770FD010DC0AA1FBB1FEE1FFF1FA217B30769
S1130780E407F50720F0A21BB30BE40BF50B661F7F
S1130790771F881F991F1A9469F760957095809543
S11307A090959B01AC01BD01CF0108950F931F9358
S11307B0CF93DF938230910510F482E090E0E091D2
S11307C06802F091690220E030E0A0E0B0E03097E8
S11307D019F1408151810281138148175907C8F0EA
S11307E08417950769F4109731F012960C931297B9
S11307F013961C9327C0009368021093690222C0C9
S11308002115310519F04217530718F49A01BD0157
S1130810EF01DF01F801DBCF21153105F9F0281BC9
S1130820390B2430310580F48A819B81611571056F
S113083021F0FB019383828304C090936902809327
S11308406802FE01329644C0FE01E20FF31F819359
S1130850919322503109398328833AC0209166024A
S113086030916702232B41F420910202309103025C
S113087030936702209366022091000230910102B6
S11308802115310541F42DB73EB740910402509132
S11308900502241B350BE0916602F0916702E21712
S11308A0F307A0F42E1B3F0B2817390778F0AC018F
S11308B04E5F5F4F2417350748F04E0F5F1F50936C
S11308C06702409366028193919302C0E0E0F0E0F6
S11308D0CF01DF91CF911F910F910895CF93DF93B3
S11308E0009709F481C0FC01329713821282A0910F
S11308F06802B0916902109781F420813181820FDE
S1130900931F20916602309167022817390751F529
S1130910F0936702E093660267C0ED0120E030E0E7
S1130920CE17DF0740F44A815B819E0141155105D2
S1130930F1F0EA01F5CFD383C28340815181840F62
S1130940951FC817D90759F488819981840F951F79
S11309500296918380838A819B819383828321156C
S1130960310529F4F0936902E09368023DC0E9017E
S1130970FB83EA8349915991C40FD51FEC17FD07F6
S113098061F480819181840F951F0296E901998316
S11309908883828193819B838A83E0E0F0E01296CE
S11309A08D919C911397009719F0FD01DC01F7CF0D
S11309B08D919C9111979D012E5F3F4F820F931F44
S11309C020916602309167022817390769F430973D
S11309D029F4109269021092680202C013821282F2
S11309E0B0936702A0936602DF91CF910895F894C3
S10509F0FFCF33
S11309F200006A0220000153544152540053544FE0
S1050A0250009E
S9030000FC
